:10000300D6D0CEC4B2E2CAD400D6D0BEB0D4B0B536
:10001300E7D7D300BBB6D3ADC4FA00D2F2CEAAD78A
:10002300A8D7A200CBF9D2D4D7A8D2B500D6D00195
:10003300000100010001003FF821082108210821E7
:100043000821083FF821080100010001000100BE5A
:10005300B01FF010101FF010101FF00100FFFE0082
:10006300001FF0101010101FF001002108450402BA
:1000730000D4B000007FFC40044FE4400440045F20
:10008300F444844484448448944894507440047FE2
:10009300FC4004CEC4020001000100FFFE1010105A
:1000A3001008200820044002800100028004400858
:1000B300203018C006CFD400001FF0101010101FFE
:1000C300F0101010101FF00440444424441448144A
:1000D300500440FFFE0000CABE00003FF8000000CD
:1000E3000000000000FFFE010001001110110821B3
:1000F300044102810205000200B2E2000427C41495
:10010300441454855445544554155415542554E505
:100113005421042284224424140808CAD400282029
:10012300241024102007FE0020F02017E0112011D6
:10013300101110151019CA170A02060002C8AB01E4
:1001430000010002800440082010102FE8C10601BE
:100153000001001FF00100010001007FFC0000B658
:10016300AF004000407C40004001FC0044FE4420BE
:10017300442044208448844484FD04450402280424
:1001830010B5E70100010001003FF8210821082113
:10019300083FF82108210821083FF8210A0102013C
:1001A3000200FED7D300007FF800100020004001BA
:1001B300800100FFFE0100010001000100010001B8
:1001C3000005000200BBB600800080FC8004FC0533
:1001D3000449082A401440104028A024A045108157
:1001E30010020804040802D3AD00002080133C125F
:1001F3002402240224F2241224122412B4132812F7
:10020300201020282047FE0000C4FA09000900112D
:10021300FC320454489950114812441444114010BC
:100223008002005104511290120FF0D2F200007FAD
:10023300FC40044104410441045FF441044284420C
:100243004444244814501440047FFC4004CEAA01C3
:100253000021001100110001007FF80208020802CA
:10026300880448044808081008200840508020D714
:10027300A80100010001003FF802000200FFFE0494
:100283000008000FF000100020064001800040002D
:1002930020D2B50440044004400440444424442490
:1002A300481448145014600440044004400440FFC0
:1002B300FE0000CBF90208071C38E0208020803EB6
:1002C3008022FE228822883E882088208841084197
:1002D3000882080408D2D40010041022102110212F
:1002E30010201020102020202020202440285030CF
:1002F30088210402020402D7A200802040100017C4
:10030300FC804040404040104013FC2040E040202F
:1003130040204020402FFE0000A1A100000000006B
:1003230000000000000000000000000000000000CA
:0B0333000000000000000000000000BF
:10093C00E4FDFCC3ED9FEC9E5015E4FBFA0BBB00F1
:0F094C00010AEB64FA4A70F50DBD00010C80E45E
:01095B002279
:100992007E08EF30E704D2918002C291C290D290D9
:0609A200EF25E0FFDEEC92
:0109A800222C
:0A09EC00C294C293120992D2942221
:0509C0001209EC7F05A7
:0C09C500E4F51FC294D293120992D29460
:0109D1002203
:04097A00AD07AC0613
:10097E00E4F517C294D293AF04120992AF0512098F
:03098E0092D2946E
:010991002243
:0E09D200C2927F647E0012093CD29202093C60
:100534001209D27F111209EC7F787E0012093C7FE8
:10054400211209EC7F211209EC7FB11209C07F3A14
:100554001209C57F3A1209C57FB21209C07F3A1247
:1005640009C57F3A1209C57FB31209C07F3A12093F
:10057400C57F3A1209C57F051209C57F3A1209C51C
:100584007F3A1209C57FB41209EC7F031209C57FB3
:10059400C01209EC7F621209C57F021209C57F04EB
:1005A4001209C57FC11209EC7FC01209C57FC212AE
:1005B40009EC7F0D1209C5E4FF1209C57FC31209B6
:1005C400EC7F8D1209C57F6A1209C57FC41209EC3C
:1005D4007F8D1209C57FEE1209C57FC51209EC7F14
:1005E4000E1209C57FE01209EC7F101209C57F0EB7
:1005F4001209C57F021209C57F031209C57F0E12B5
:1006040009C57F071209C57F021209C57F071209B0
:10061400C57F0A1209C57F121209C57F271209C5B1
:100624007F371209C5E4FF1209C57F0D1209C57F82
:100634000E1209C57F101209C57FE11209EC7F1063
:100644001209C57F0E1209C57F031209C57F031263
:1006540009C57F0F1209C57F061209C57F02120959
:10066400C57F081209C57F0A1209C57F131209C57F
:100674007F261209C57F361209C5E4FF1209C57F1A
:100684000D1209C57F0E1209C57F101209C57F3AE4
:100694001209C07F361209EC7FC81209C57F2902EE
:0206A40009EC5F
:1008D0008F827F2A1209ECE4FF1209C5AF82EF2450
:1008E0001AFF1209C5E4FF1209C5EB241AFF120909
:1008F000C57F2B1209ECE4FF1209C5ED04FF1209B4
:10090000C5E4FF1209C5E51E04FF1209C57F2C02CC
:0209100009ECF0
:10095C008A318B32EF2401FBE43EFAED2401F51EC3
:0E096C00E43CF51D1208D0AF32AE3102097A1C
:040912008E088F09B3
:10091600751D00751E9F7B4F7A00E4FDFCFFFE12DD
:1009260008D0E4FBE4FAAF09AE0812097A0ABA5015
:05093600F50BBBA0EF72
:01093B002299
:0806A6007B1F7A007C007E003E
:0C06AE008E088F098C0A8D0B8A0C8B0DB6
:1006BA00751500751617AB10AA11A91212087E70CB
:1006CA00030207ECC3948050030207DEE4F513F536
:1006DA0014C3E5149516E513951540030207C5AB37
:1006EA0010AA11A91212087EFF90003075F022E5B7
:1006FA00141208C4E51375F022A42583F583E49344
:10070A006F60030207BA900001120897FF90003148
:10071A0075F022E5141208C4E51375F022A42583A6
:10072A00F583E4936F60030207BAE509240FFBE43B
:10073A003508FAE50B240FF51EE4350AF51DAD0B55
:10074A00AC0AAF09AE081208D0E4FBE4FA90003212
:10075A0075F022E5141208C4E51375F022A4258366
:10076A00F583E5822BF582E43583F583E493FD3343
:10077A0095E0FC74807E00A802088006CEA2E713EA
:10078A00CE13D8F8FFEE5CFEEF5D4E6006AF0DAEFD
:10079A000C8010E50D650F7004E50C650E6007AF5F
:1007AA000FAE0E12097A0ABA08A30BEB6420709BEB
:1007BA000514E514700205130206DB74022512F50E
:1007CA0012E43511F51174102509F509E43508F517
:1007DA00080206C074012512F512E43511F511025A
:0207EA0006C047
:0107EC0022EA
:0C033E008E208F218C228D238A248B2599
:10034A0085202F852130AB28AA29A92A12087E7078
:10035A0003020533C394805003020525E4F52DF505
:10036A002EAB28AA29A92A12087EFF90003075F020
:10037A0022E52E1208C4E52D75F022A42583F58303
:10038A00E4936F60030204F8900001120897FF904B
:10039A00003175F022E52E1208C4E52D75F022A46D
:1003AA002583F583E4936F60030204F8F52BE4F5E3
:1003BA002C90003275F022E52E1208C4E52D75F056
:1003CA0022A42583F58375F002E52B1208C4E49371
:1003DA00FD3395E0FC74807E00A82C088006CEA22E
:1003EA00E713CE13D8F8FFEE5CFEEF5D4E601C7E7D
:1003FA0000E521252CFFEE3520FE7C00E523252B88
:10040A00FDEC3522FCAB25AA248026E5256527705C
:10041A0004E5246526601D7E00E521252CFFEE35C6
:10042A0020FE7C00E523252BFDEC3522FCAB27AA18
:10043A002612095C052CE52CC3940850030203BB61
:10044A00E4F52C90003375F022E52E1208C4E52D50
:10045A0075F022A42583F58375F002E52B1208C4F2
:10046A00E493FD3395E0FC74807E00A82C08800696
:10047A00CEA2E713CE13D8F8FFEE5CFEEF5D4E6016
:10048A0024AF2C7E00E521252CCFEE3520CF240881
:10049A00CF3400FE7C00E523252BFDEC3522FCAB96
:1004AA0025AA24802EE52565277004E524652660A3
:1004BA0025AF2C7E00E521252CCFEE3520CF240850
:1004CA00CF3400FE7C00E523252BFDEC3522FCAB66
:1004DA0027AA2612095C052CE52CC39408500302AE
:1004EA00044D052BE52BC3941050030203B8052EC7
:1004FA00E52E7002052DC39432E52D9400500302B7
:10050A00036B7402252AF52AE43529F52974102586
:10051A0021F521E43520F5200203507401252AF53E
:09052A002AE43529F529020350E9
:0105330022A5
:1007ED0074FFFFFE120912750EFF750FE07510FFF5
:1007FD007511007512037D0A7F081206A674FFF5A8
:10080D000EF50FF51075110075120C7B007AF87D41
:10081D001E7C00E4FFFE1206AE74FFF50EF50FF51B
:10082D00107511007512177D327F101206A6750E08
:10083D0000750F1F7510FF75110075121E74FFFBEB
:10084D00FA7D467C007F087E001206AE750E00759F
:10085D000F1F7510FF75110075122774FFFBFA7DC0
:10086D005A7C007F087E001206AE7F087E070209C3
:01087D003C3E
:1009A90053B1FB43B204120534D2951207ED7FAC63
:0709B9007E0D12093C80F4E1
:030000000209E012
:0C09E000787FE4F6D8FD7581320209A989
:10087E00BB010689828A83E0225002E722BBFE0278
:09088E00E32289828A83E49322AB
:10089700BB010CE58229F582E5833AF583E0225016
:1008A70006E92582F8E622BBFE06E92582F8E22260
:0D08B700E58229F582E5833AF583E493227A
:0C08C400A42582F582E5F03583F583223F
:00000001FF
