:020000040800F2
:10000000782000200D020008DB170008FF1600080A
:10001000D9170008930300085131000800000000C0
:100020000000000000000000000000005919000856
:10003000DD030008000000005719000865190008DA
:1000400027020008270200082702000827020008EC
:1000500027020008270200082702000827020008DC
:1000600027020008270200082702000827020008CC
:1000700027020008270200082702000827020008BC
:1000800027020008270200082702000827020008AC
:10009000270200082702000827020008270200089C
:1000A000270200082702000827020008270200088C
:1000B000270200082702000827020008270200087C
:1000C000270200082702000827020008270200086C
:1000D000270200082702000827020008270200085C
:1000E000270200082702000827020008270200084C
:1000F000270200082702000827020008270200083C
:10010000270200082702000827020008270200082B
:10011000270200082702000827020008270200081B
:10012000270200082702000827020008270200080B
:1001300027020008270200082702000827020008FB
:1001400027020008270200082702000827020008EB
:1001500027020008270200082702000827020008DB
:1001600027020008270200082702000827020008CB
:1001700027020008DD170008270200080000000021
:1001800027020008270200082702000827020008AB
:10019000270200082702000827020008270200089B
:1001A00000000000000000002702000827020008ED
:1001B000270200082702000827020008270200087B
:1001C000270200082702000800000000270200089C
:1001D000270200082702000827020008270200085B
:1001E000270200082702000827020008270200084B
:1001F0000000000027020008DFF80CD000F08CF8A7
:1002000000480047E5310008782000200648804774
:1002100006480047FEE7FEE7FEE7FEE7FEE7FEE7EB
:10022000FEE7FEE7FEE7FEE7F1190008F901000826
:100230002DE9F05F0546002092469B46884606461B
:10024000814640241BE0284641464746224600F0AE
:1002500053F853465A46C01A914110D311461846D6
:10026000224600F03AF82D1A67EB01084F46224665
:100270000120002100F031F817EB00094E41201E4B
:10028000A4F10104DFDC484631462A464346BDE876
:10029000F09F40EA01039B0703D009E008C9121F41
:1002A00008C0042AFAD203E011F8013B00F8013B30
:1002B000521EF9D27047D2B201E000F8012B491E5C
:1002C000FBD270470022F6E710B513460A460446F3
:1002D0001946FFF7F0FF204610BD202A04DB203A24
:1002E00000FA02F1002070479140C2F1200320FA89
:1002F00003F3194390407047202A04DB203A21FA87
:1003000002F00021704721FA02F3D040C2F120022E
:100310009140084319467047064C074D06E0E068D7
:1003200040F0010394E8070098471034AC42F6D33C
:10033000FFF766FF743200089432000870B58C181D
:1003400010F8015B15F0070301D110F8013B2A11E9
:1003500006D110F8012B03E010F8016B01F8016BD6
:100360005B1EF9D12B0705D40023521E0DD401F8D2
:10037000013BFAE710F8013BCB1A921C03E013F89B
:10038000015B01F8015B521EF9D5A142D8D30020D0
:1003900070BDFEE70020704700207047054900222D
:1003A000054810B501F038FC0449034801F02EFC63
:1003B000002010BD74120020A0010020740A00204B
:1003C0000146044810B501F021FC024801F003FC8D
:1003D000002010BDA001002000207047704770472A
:1003E00070B5044600F0FAF80546601C02D00448D7
:1003F0000078044400F0F2F8401BA042FAD370BD2C
:10040000740000202DE9F84F00224FF001094FF051
:10041000030A4FF00F0E00BF0B6809FA02F42340E5
:10042000A34270D14D68012D05D0022D03D0112DAE
:1004300001D0122D11D185685700CE680AFA07FC49
:1004400025EA0C05BE402E43866045680E79A5431B
:10045000C6F3001696402E434660C56856008F6866
:100460000AFA06F4A543B7402F43C7604D68022D32
:1004700001D0122D12D1D5080F694FEA427C00EB52
:100480008505AB462D6A4FEADC6C0EFA0CF807FACC
:100490000CF725EA08052F43CBF820700D79076883
:1004A00005F00305A743B5403D4305604C68E400F3
:1004B00074D53D4C256845F480452560246822F0BC
:1004C0000307960704F480440094384C360F274401
:1004D000D7F80848DFF8D8C00EFA06F5604524EAD8
:1004E000050401D100252EE0324DA84201D101259D
:1004F00029E0314DA84201D1022524E02F4DA84228
:1005000002D103251FE049E02D4DA84201D1042569
:1005100019E02C4DA84201D1052514E02A4DA8422E
:1005200001D106250FE0294DA84201D107250AE097
:10053000274DA84201D1082505E0264DA84201D14A
:10054000092500E00A25B540234E2543C7F8085881
:100550004D683468ED0324EA030400D51C431E4DA6
:1005600034602D1D4E682C68B60324EA030400D5C0
:100570001C43194E2C6008364D683468ED0224EA9D
:10058000030400D51C43144D34600C354E682C68B0
:10059000B60224EA030400D51C432C60521C102A26
:1005A000FFF43AAFBDE8F88F443802400030014014
:1005B000000002400004024000080240000C02401B
:1005C000001002400014024000180240001C0240CB
:1005D0000020024000240240003C014001488068A5
:1005E00070470000740000200248816802781144BE
:1005F0008160704774000020032010B500F06EF891
:10060000002000F005F800F023F8002010BD0000E5
:1006100070B50D4D04464FF47A700C4A2978126873
:10062000B0FBF1F0B2FBF0F001F056F848B9102C35
:1006300007D200222146501E00F030F800206C60E6
:1006400070BD012070BD00007400002080000020FB
:100650000A4808B5016841F080510160006800F067
:10066000805000900548001D016841F48041016000
:10067000006800F48040009008BD0000403802404F
:10068000002809DB410900F01F028900012001F167
:10069000E0219040C1F80001704700000E4BF0B41B
:1006A0001B680D46C3F30223C3F10706042E00D9CD
:1006B0000426191D072901D2002300E0DB1E0124B6
:1006C00004FA06F19C40491E2940641E99401440DA
:1006D0002143F0BC02F03DBD0CED00E0064900F006
:1006E000070210B54FF6FF040868044B204040EAAB
:1006F00002201843086010BD0CED00E00000FA0570
:1007000001680123C0F8FC33002280F8F4238869D3
:10071000044A40F000608861486D1043486500203D
:10072000704700000300001070B5164D0446A1B1DB
:10073000012911D12068D0F8001E41F00101C0F854
:10074000001ED4F8000401F0FBFD206A002803D04D
:10075000286840F00600286070BD206A28B101F0CA
:1007600003F9286820F0060028602068D0F8001EF1
:1007700021F00101C0F8001ED4F80004BDE870406B
:1007800001F07CBD10ED00E0006841620020704780
:10079000F0B503685D6A39B19F6A4C1E00204FF4C2
:1007A000827605EB17450BE045EA0240986210E0BF
:1007B000471C06EB800053F800C0F8B205EB1C455F
:1007C000A042F5D34FF4807000EB810045EA02426D
:1007D0001A500020F0BDD0F8000401F0B5BCC1EB08
:1007E000C10200EB8202D0F80004926C01F020BC40
:1007F000C1EBC10200EB8202D0F80004D2F808225B
:1008000001F06BBCD0F8000401F0A0BC01F00F02B5
:100810000B0670B5C2EBC20104464FF001004FF069
:10082000000504EB810103D581F83D003C3103E074
:1008300081F8FD5101F5FE710A7094F8BC23012A7C
:1008400008D084F8BC03206802F018F8002084F86F
:10085000BC5370BD022070BD70B54268044601F003
:100860000F00904201D9012070BD01F00F024FF03E
:1008700000050B06C2EBC2014FF0010204EB81013F
:1008800003D581F83D203C3103E081F8FD5101F5AD
:10089000FE718D70087094F8BC03012808D084F8AC
:1008A000BC23206802F0E6F9002084F8BC5370BD38
:1008B000022070BD01F00F01C1EBC10100EB81000E
:1008C000D0F8140270472DE9F04101F00F060446FC
:1008D0000D064FF00100C6EBC6014FF0000504EB1A
:1008E000810103D581F83D003C3103E081F8FD51E1
:1008F00001F5FE714F788A60CB700E7007B1CE8023
:10090000022B00D10D7194F8BC23012A09D084F880
:10091000BC03206801F012FF284684F8BC53BDE8F0
:10092000F0810220FBE770B501F00F050C460026B0
:10093000C5EBC50100EB8101C1F80822C1E984368D
:1009400081F8FD6181F8FC5101F5FE710369012B0D
:1009500000D10A612207027C006803D002F0E2F9AC
:10096000002070BD02F0CCF8FAE770B50D46416882
:10097000044605F00F00884201D9012070BD290608
:100980004FF000064FF0010207D5C0EBC00104EBA9
:10099000810181F83D203C3107E0C5EBC50104EB46
:1009A000810181F8FD6101F5FE718A70087094F88B
:1009B000BC03012807D084F8BC23206802F086F924
:1009C000280702D007E0022070BD217C04F5717277
:1009D000206802F023F9002084F8BC6370BD2DE983
:1009E000F04101F00F050C460026C5EBC5010127BB
:1009F00000EB81018A64C1E9143681F83D7001F889
:100A00003C5F0369012B00D10A612207027C006868
:100A100004D002F087F90020BDE8F08102F070F800
:100A2000F9E700002DE9FC5F05680446284602F05E
:100A3000A2FA00287ED1206802F0C9FA002879D0F5
:100A4000206802F0C4FA800704D52068416901F0EB
:100A500002014161206802F0BAFAC10604F5717022
:100A6000009034D52068816921F0100181612F6ADE
:100A700007F00F01C7F34340C1EBC101022804EBAB
:100A8000810606F5FE7602D0062811D01AE047F658
:100A9000F070074216D0C7F30A12F16817462846CD
:100AA00002F099FAF168B0693944F160384408E01D
:100AB00000990822284602F08EFAB069C7F30A119D
:100AC0000844B0612068816941F0100181612068AB
:100AD00002F07DFA00034FF001094FF0080B5BD5DF
:100AE0002068002602F052FADFF8A8A3074651E07A
:100AF000F8074DD02068F1B202F061FA8046C007D5
:100B000007D005EB4611C1F8089B3146204600F09E
:100B10006BFE5FEA087022D505EB4611C1F808BBF1
:100B20002068016C00EB461001915145D0F8081B7C
:100B300007D900E0ABE1090403D54FF40041C0F848
:100B4000081B204600F0C2FA0198504507D92069D9
:100B5000012804D120680121009A02F05FF85FEAC1
:100B6000C86004D505EB46111020C1F8080B5FEAF8
:100B7000886004D505EB46102021C0F8081B5FEA09
:100B8000884005D505EB46114FF40050C1F8080B1D
:100B90007F08761C002FABD1206802F018FA4003C2
:100BA0004FF0000A5CD5206802F0E9F900260746FC
:100BB00054E0F80750D02068F1B202F0EEF9804618
:100BC000C00723D0D5F8342806F00F0C05EB4613E8
:100BD00009FA0CF08243C5F83428C3F80899206953
:100BE00001280FD1C6EBC60004EB8000D0E911123A
:100BF0001144816436B9206D20B920680121009A22
:100C000002F00CF82046F1B2FFF7E9FD5FEA087048
:100C100003D505EB4611C1F808B95FEAC86004D5F1
:100C200005EB46111020C1F808095FEA486004D5B9
:100C300005EB46114020C1F808095FEA887004D529
:100C400005EB46110220C1F808095FEA086003D5E8
:100C50003146204600F02EFE7F08761C002FA8D1DA
:100C6000206802F0B4F9002811DAD5F8040820F061
:100C70000100C5F8040894F8F403012839D020468F
:100C800000F008FA2068416901F0004141612068E4
:100C900002F09DF900050BD5D5F80808C00702D071
:100CA000204600F02FFA2068416901F4006141619B
:100CB000206802F08CF900010AD52068416901F032
:100CC0000061416194F8F403D0B1204600F01AFAB3
:100CD000206802F07CF9C00476D5D5F8040820F02D
:100CE0000100C5F804082068102102F025F9002150
:100CF00035E00021204684F8F4A3FFF715FDC1E795
:100D000084F8F4932068406D0121C0F38300C4F897
:100D1000F8032046FFF708FDDAE700BF05EB4110B6
:100D20004FF67F32C0F80829D0F8003923F40013B9
:100D3000C0F80039D0F8003943F00063C0F800393A
:100D4000C0F8082BD0F8002B22F40012C0F8002BBA
:100D5000D0F8002B42F00062C0F8002B491C6068FC
:100D60008842DBD8D5F81C0840F00110C5F81C08F3
:100D7000206B60B1D5F8840840F00B00C5F88408FA
:100D8000D5F8440840F00B00C5F844080CE0D5F84D
:100D9000140842F22B010843C5F81408D5F81008CE
:100DA00040F00B00C5F81008D5F8000820F4FE60EC
:100DB000C5F80008217C2068009A01F02FFF206808
:100DC000416901F480514161206802F000F980041A
:100DD00017D5206801F0F2FC206802F0BFF8E0604F
:100DE00000F076FA0146207B2368C2B2184602F072
:100DF00029F9204600F038F92068416901F40051D2
:100E00004161206802F0E3F8000707D5204600F0B2
:100E100045F92068416901F008014161206802F04C
:100E2000D6F8C00208D50021204600F035F8206829
:100E3000416901F480114161206802F0C8F8800224
:100E400008D50021204600F02BF82068416901F404
:100E500000114161206802F0BAF8400007D5204631
:100E6000FFF7B9FC2068416901F0804141612068C9
:100E700002F0ADF840070AD520684568680702D53A
:100E80002046FFF7BFFC2168486828434860BDE85A
:100E9000FC9F00000A30544FD0F8000401F0ACB9B8
:100EA000D0F8000401F0AAB92DE9F04104008AB09D
:100EB00005D094F8BD030025266820B108E0012084
:100EC0000AB0BDE8F081204684F8BC5300F066F813
:100ED000032084F8BD03F06BC00500D425612068B1
:100EE00001F008FE04F11001684628228846FFF749
:100EF000D0F994E80F0001F06FFC0227D8BB2068FE
:100F0000002102F076F80020012610E0C0EBC001BD
:100F1000421C04EB810181F83D6081F83F504D6433
:100F20008D640D6581F83C00A1F84200D0B2616883
:100F30008142EBD8002011E0C0EBC001421C04EB61
:100F4000810181F8FD5181F8FF51C1F80452C1F8C7
:100F50000852C1F8105281F8FC01D0B26168814298
:100F6000EAD8282241466846FFF793F994E80F0033
:100F700001F002FD10B184F8BD73A0E7606A84F847
:100F8000385084F8BD63012802D12046FFF7B8FB32
:100F9000206801F0E5FC002092E700002DE9F04117
:100FA00086B0044614216846FFF78CF92949206869
:100FB00088424BD1284C206840F002002060206815
:100FC00000F002000590206840F0040020602068D6
:100FD00000F004000590206840F0010020602068C7
:100FE000022500264FF00A08032743F6234100F0AC
:100FF000010005908DE8E20118486946FFF702FA02
:101000000D2117488DE8E2016946FFF7FBF9282119
:1010100014488DE8E2016946FFF7F4F9206840F0D2
:1010200000502060206800F000500590206840F0DB
:101030008040206020680022114600F0804005902A
:101040004D20FFF72BFB4D20FFF71AFB06B0BDE844
:10105000F0810000000004403038024000040240EB
:10106000000802400000024070B50446C068012537
:1010700070B1022801D0FFF7B2F9D4F80004294674
:1010800001F012F9D4F80004BDE8704001F0CDB8C9
:101090000025F2E7D0F8000401F0F0B8D0F8000421
:1010A00001F0F6B810B5044690F8BC0301280BD047
:1010B000012084F8381084F8BC03206801F0B0FFE8
:1010C000002084F8BC0310BD022010BDD0F800241D
:1010D00000F57171104601F0F3B810B5044690F8B0
:1010E000BC0301280CD0012084F8BC03206801F067
:1010F0002BFC206801F00AFF002084F8BC0310BD1F
:10110000022010BD10B50446D0F8000401F018F913
:101110002068D0F8001E41F00101C0F8001E206ACE
:10112000002804D00248016841F00601016010BDAA
:1011300010ED00E01848F8B5016841F080510160F9
:101140000068164C00F080500090206840F4803019
:101150002060FFF743FA4FF47A76054605E000BFBA
:10116000FFF73CFA401BB0420FD86068C003F7D5C8
:10117000206840F400302060FFF730FA054606E0B2
:10118000FFF72CFA401BB04201D90320F8BD60687C
:101190008003F5D50020F8BD4038024000700040C3
:1011A0002DE9F04705000F4663D0444E306800F04B
:1011B0000F00B84209D2306820F00F003843306089
:1011C000306800F00F00B84253D128683C4C8107CA
:1011D00012D5400703D5206840F4E05020602878FD
:1011E000000703D5206840F460402060A9682068AB
:1011F00020F0F000084320602878C0072AD030494A
:1012000068680839012810D00968022810D08907B9
:1012100000292EDA216821F0030101432160FFF744
:10122000DDF9804641F288390DE009688903EFE76E
:101230008901EDE7FFF7D2F9A0EB0801494502D992
:101240000320BDE8F0876868216801F00C01B1EB6C
:10125000800FEFD1306800F00F00B8420BD9306832
:1012600020F00F0038433060306800F00F00B842C3
:1012700001D00120E5E72878400705D5E968206816
:1012800020F4E050084320602878000706D528693C
:10129000216821F4604141EAC000206000F01EF89E
:1012A0002168084AC1F30311515CC840064908602F
:1012B00006480068FFF7ACF90020C2E7003C024096
:1012C00008380240643200088000002078000020C6
:1012D000014800687047000080000020154910B5E3
:1012E0001548096811F00C0213D01449042A0FD0D4
:1012F000082A0ED10F4C241F2268236802F03F02F7
:101300005B0207D52068C0F38810A0FB010106E04E
:10131000084610BD2168C1F38811A1FB000100231C
:10132000FEF786FF2168C1F30141491C4900B0FB6B
:10133000F1F010BD083802400024F40040787D012F
:101340002DE9F84F04004FF000076ED02078DFF849
:101350007CA3AAF10408C007A8F104054CD0DAF870
:1013600000105046C1F38101012908D00068C0F384
:10137000810002280AD1D8F80000400206D528686A
:10138000800339D560680028DFD035E06068B0F5AB
:10139000803F0BD010B1B0F5A02F11D0286820F4F9
:1013A00080302860286820F4802002E0286840F41B
:1013B00080302860606890B1FFF710F906460AE0B7
:1013C000286840F480202860F0E700BFFFF706F9A6
:1013D000801B642872D828688003F7D50CE0FFF7DB
:1013E000FDF8064605E000BFFFF7F8F8801B64280B
:1013F000F0D828688003F7D42078800742D5DAF83F
:101400000010504611F00C0F08D00068C0F38100A6
:1014100002280BD1D8F80000400207D428688007C2
:1014200018D5E068012800D114E04AE1E0680028FE
:10143000286817D040F001002860FFF7CFF8064673
:1014400005E000BFFFF7CAF8801B0228C2D8286851
:101450008007F7D52069296821F0F80141EAC0002A
:1014600028600FE020F001002860FFF7B7F806467B
:1014700005E000BFFFF7B2F8801B02281ED82868DD
:101480008007F7D42078000729D5904861696C302F
:1014900000298146016812D041F001010160FFF787
:1014A0009DF8064605E000BFFFF798F8801B02286C
:1014B00004D8D9F800008007F6D510E089E021F0C3
:1014C00001010160FFF78AF8064604E0FFF786F89D
:1014D000801B02287DD8D9F800008007F6D4207838
:1014E00040076BD5DFF8E49109F13809D9F800001D
:1014F000C0000BD4D9F8001041F08051C9F8001099
:10150000D9F80000012700F0805000907048016871
:10151000C90512D40168834641F480710160FFF768
:101520005DF8064605E000BFFFF758F8801B642809
:101530004FD8DBF80000C005F6D5644EA0686836C9
:1015400001280AD008B1052811D0306820F0010028
:101550003060306820F0040002E0306840F00100A4
:101560003060A068A0B1FFF739F883460CE030681E
:1015700040F004003060F0E7FFF730F8A0EB0B011B
:1015800041F28830814268D830688007F4D50EE097
:10159000FFF724F8834607E0FFF720F8A0EB0B01E4
:1015A00041F28830814258D830688007F4D42FB196
:1015B000D9F8001021F08051C9F80010A069E0B3FB
:1015C000DAF80010C1F3810102294DD00228286801
:1015D00000E042E020F08070286003D0FEF7FEFFBC
:1015E00004463DE0FEF7FAFF064604E0FEF7F6FF8C
:1015F000801B022831D828688001F7D4D4E909215A
:10160000DFF8D0C0D4E9070694F830304F0894F8DA
:101610002C1030430CEB074444EA8212104340EA9A
:10162000016040EA0370C8F80000286840F080704C
:101630002860FEF7D3FF044605E044E0FEF7CEFF46
:10164000001B022809D828688001F7D53BE000BFBD
:10165000FEF7C4FF001B022802D90320BDE8F88F63
:1016600028688001F4D42EE00128D8F8000028D0A2
:10167000E16900F480028A4223D1216A00F03F022E
:101680008A421ED1626A47F6C0710140B1EB821FE7
:1016900017D1A16A4FF0FF3200F4403302EB510141
:1016A000B3EB014F0DD194F82C1000F07062B2EB47
:1016B000016F06D194F8301000F0E040B0EB017FEC
:1016C00001D00120CAE70020C8E700000838024026
:1016D000007000400000FFFF401EB0F1807F10B599
:1016E00001D3012010BD4FF0E02460610F2160178D
:1016F00001F02FFD0020A0610721216110BDFEE750
:10170000F0B500230A251C463026372711E000BF1C
:10171000B5EB107F02D906EB107C01E007EB107CE3
:1017200001F813C001EB430C00015B1C8CF8014075
:10173000DBB29342ECD3F0BD114808B5016841F02B
:1017400001010160016801F001010091016841F0AF
:1017500080010160016801F080010091016841F0A1
:1017600002010160016801F002010091016841F08D
:1017700004010160006800F00400009008BD000052
:101780003038024010490122104810B500F024FC06
:1017900008B1FEF724FE0E490C4800F0F8FD08B130
:1017A000FEF71DFE0B49094800F029FA08B1FEF7C3
:1017B00016FE064800F064FE002803D0BDE8104085
:1017C000FEF70DBE10BD000000000020A0010020AB
:1017D0006001002060000020FEE770470148FFF72D
:1017E00021B90000700400202DE9F0410446006991
:1017F0000D462027236801284FF4004604F5717236
:1018000003EB4511D3F840C0D1F8080B09D0DFF83D
:101810009CE0F4453AD1020433D500BFC1F8086B0F
:1018200040E0234B5FEA007E04D59C453AD9000492
:10183000F4D437E05FEA806E02D5C1F8087B31E06E
:1018400010F0280F2ED19C4501D90004E6D4D1F820
:10185000103BC5EBC50004EB8000C3F31203D0F8C6
:101860000412A1EB0303C0F81432D0F80832194473
:10187000C0F8081295B9D4F8100278B9206801218F
:101880000AE080060AD5C1F8087B07E035B9D4F82C
:10189000100218B90021184601F0C0F92046E9B23B
:1018A000FEF7A6FF0020BDE8F08100000A31544F8A
:1018B0000A30544F2DE9F84F0E4605688146C1EBBA
:1018C000C60100EB8104D4E914203C34904202D9D3
:1018D0000120BDE8F88FA168101A814200D20846A5
:1018E000C01C05EB461887081BE000BFA268A0EBF0
:1018F000010A524500D2924699F810100AF10300ED
:1019000000911FFA8AF3E16887082846F2B201F0D5
:101910000DFCE16801EB0A00E060A16901EB0A003F
:10192000A061D8F8180980B2B84205D3D4E90501FE
:10193000814201D20028D9D1D4E90501884208D8D2
:10194000D5F83418012006F00F0290408143C5F805
:1019500034180020BDE7704770470178407841EAAD
:1019600000207047FEF740BE30B593B03421684682
:10197000FEF7A8FC14210DA8FEF7A4FC1A48016884
:1019800041F080510160006800F0805012901748CB
:10199000016841F44041016000680224192300F409
:1019A00040401290012008934FF4D875820501043D
:1019B000CDE90642CDE909540B94CDE90001684612
:1019C000FFF7BEFCFFF7B6FB0FAD0021E3024FF4BB
:1019D000A05285E80E000F20CDE90D0407210DA8C7
:1019E000FFF7DEFB13B030BD40380240007000400E
:1019F00005484FF000610368034A43F47003036035
:101A0000803A11607047000088ED00E02DE9F04158
:101A1000D0F8C4220C46D0F8BC12F1B104EB840318
:101A2000002600EB8305AB694BB1C4EBC40702EBA6
:101A30008702526CB3FBF2F702FB17327AB1C1F89E
:101A400014622246D0F8C0020369D1F8080201F5F9
:101A5000047198470020BDE8F0810320FBE70023D4
:101A600021461A46AE6100F074FCF3E770B5D0F879
:101A7000BC4205466CB100F076FBC4F80C0204F5DC
:101A80000371D5F8C002C268D4F804029047002060
:101A900070BD032070BD70B500260446812100F0A2
:101AA000BEFA002520460121258700F0B8FA8221E0
:101AB0002046A4F8785100F0B2FAD4F8BC02A4F899
:101AC0004C50A4F84E5048B1D4F8C00204F52F741D
:101AD00040688047206801F05DFB2560304670BD9E
:101AE00010B5D0E9AF4159B194F80002FF2807D0F2
:101AF0008B68214694F801229847FF2084F8000261
:101B0000002010BD0A210180004870478800002095
:101B10004321018000487047D80000204321018004
:101B2000004870479400002043210180004870471E
:101B30001C0100202DE9F04704464FF4077001F026
:101B40005BFB05004FF0000735D0207C01264FF4E9
:101B500000794FF01008C4F8BC5280B340232046EF
:101B60000222812100F04CFB4023268702222046DE
:101B7000012100F045FBA4F87861082303222046E8
:101B80008221A4F84E8000F03BFBA4F84C60D4F80E
:101B9000C00200688047C5F81472C5F81872207C2E
:101BA000D5F80422A8B140232046012100F034FBDF
:101BB0000020BDE8F0870220C4F8BC72F9E7FFE717
:101BC00002224B468121204600F01AFB4B46268715
:101BD000CCE74B46E8E710B5D0F8BC1251B1027C17
:101BE000002AD1F8042207D04023012100F014FB81
:101BF000002010BD032010BD4FF40073F5E719B1AC
:101C0000C0F8C0120020704703207047D0F8BC0213
:101C1000C0F8041200207047D0F8BC02C0F81022AF
:101C2000C0F80812002070472DE9FC4105460C461B
:101C300000200646D5F8BC728DF80000ADF804000F
:101C4000087810F0600122D020293ED1E288B2B19C
:101C5000000608D5D5F8C0023946836860789847F1
:101C6000E288394629E06078394687F80002A07991
:101C700087F801022846E28800F052F82AE0D5F8F9
:101C8000C0020022214683686078984722E060788D
:101C900030B101281ED00A2809D00B2815D110E038
:101CA00095F89C02032810D1022201A905E095F8BD
:101CB0009C02032809D101226946284600F04AF80F
:101CC00008E095F89C02032804D02146284600F03D
:101CD0001CF803263046BDE8FC8110B5D0F8B822C8
:101CE0000AB152689047002010BD13460A460021F1
:101CF00010B500F091FA002010BD13460A460021ED
:101D000010B500F026FB002010BD10B58021044660
:101D100000F004FB2046BDE81040002100F0FEBAB0
:101D200010B5C0F858210323C0F894321346C0F808
:101D30005C210A46002100F06FFA002010BD052149
:101D4000002310B51A46C0F89412194600F064FA40
:101D5000002010BD10B582610223C0F894321346F2
:101D6000C2610A46002100F0F4FA002010BD0421EF
:101D7000002310B51A46C0F89412194600F0E9FA8B
:101D8000002010BDF8B504460D460020ADF8000057
:101D90004888010A062947D006DC01290FD002290C
:101DA00012D0032962D11DE0072946D00F295DD149
:101DB000D4F8B402C26920E0694690473BE0D4F809
:101DC000B412207C0A68F7E7207C02260028D4F8A9
:101DD000B80205D0C16A684688470146467036E0B9
:101DE000816AF8E7C0B2062840D2DFE800F00309B4
:101DF0000D111519D4F8B4024268B2B3207CDBE7A8
:101E0000D4F8B4028268F8E7D4F8B402C268F4E700
:101E1000D4F8B4020269F0E7D4F8B4024269ECE7FE
:101E2000D4F8B4028269E8E7207CF0B9D4F8B802AB
:101E3000416B68468847014609E0207CA8B9D4F880
:101E4000B802016B68468847014607204870EA8857
:101E50008AB1BDF8000040B1824200D90246204656
:101E6000ADF80020FFF776FFF8BDFFE729462046D2
:101E7000FFF74BFFF8E72046FFF779FFF4E770B56F
:101E800000284FF000051ED004462E4602E0761CC6
:101E9000641CF6B22378002BF9D1022404EB46042B
:101EA000148012786B1C03264A550024AA1CCE54B9
:101EB00006E0551C8B54EAB2531C401C8C54DAB219
:101EC0000378002BF5D170BD01004FF0000004D065
:101ED000012901D0022901D0032070470120704759
:101EE00004A00A46024910B5FFF7C9FF004810BD1B
:101EF0007408002043444320436F6E666967000006
:101F000012200880004870472400002004A00A46E0
:101F1000024910B5FFF7B3FF004810BD7408002058
:101F200043444320496E7465726661636500000036
:101F300004200880004870472000002004A00A46C2
:101F4000024910B5FFF79BFF004810BD7408002040
:101F500053544D6963726F656C656374726F6E691B
:101F60006373000004A00A46024910B5FFF787FF1B
:101F7000004810BD7408002053544D333220566978
:101F8000727475616C20436F6D506F727400000045
:101F900010B51A2008800B480A490830021F09684A
:101FA00000681468081809D007490822FFF7A8FB41
:101FB0000549042220461031FFF7A2FB0248801E8B
:101FC00010BD000020F4F01F460000200C20088007
:101FD000004870473800002030B4A0B1D0F8B842B3
:101FE00000230CB1C0F8B832D0F8CC420CB1C0F824
:101FF000CC3209B1C0F8B4120121027080F89C12F1
:1020000030BC00F0B5B830BC0320704710B5D0F834
:10201000C402FEF721FCBDE81040FFF755BF10B524
:10202000D0F8C402FEF7F2FBBDE81040FFF74CBF4A
:1020300070B51646044649B1D4F8B80242691AB1DF
:1020400094F89C02032842D0032070BDD4F8941267
:10205000002504F11400022932D1D0E90232934262
:1020600006D99A1A314682602046FFF746FE0FE0F5
:102070009A4214D14068904211D3D4F89812884201
:102080000DD2002220461146FFF737FEC4F89852C1
:1020900000231A461946204600F0BEF810E0D4F896
:1020A000B802C16829B194F89C02032801D12046E6
:1020B00088478021204600F031F92046FFF73FFE97
:1020C00094F8A002012806D184F8A05203E020462B
:1020D00090470028B9D1002070BD10B513460446C2
:1020E00049B1D4F8B80282691AB194F89C02032865
:1020F00024D0032010BDD4F8941204F5AA7003294B
:1021000020D1D0E9021291420AD98A1A8260C068AD
:10211000824200D3024619462046FFF7E6FD11E051
:10212000D4F8B802016929B194F89C02032801D1BE
:10213000204688472046FFF71AFE03E020469047D6
:102140000028D7D1002010BD0020704710B5D0F86E
:10215000B812012280F89C2219B103794A68D9B2D9
:102160009047002010BDD0F8C402FEF7A3BB0000CA
:1021700070B50178012929D1154900220125154B97
:102180000924C1F80004C0F8C4120846CA600A61F4
:10219000C1E906520A624A62CA620A634A63C1E935
:1021A0000034FEF781FE08B1FEF719F908484FF434
:1021B0000071FEF7E9FA064880220021FEF7E8FAEE
:1021C000034801214FF4BA72FEF7E2FA002070BD15
:1021D0007004002000000440D0F8C42201F07F0009
:1021E0000B06C0EBC00002EB800002D590F83E0069
:1021F000704790F8FE01704700207047002070473C
:1022000010B51C46D0F8C40213462246FEF75BFB0D
:10221000BDE81040FFF758BE10B5D0F8C402FEF775
:1022200082FBBDE81040FFF74FBE70B504460125A4
:102230000020D4F8BC1284F89C52C4F89402606068
:10224000C4F8A40229B1D4F8B8020021426820469B
:1022500090470022204640231146FFF7D1FF402639
:10226000A4F864510022334680212046C4F86061FE
:10227000FFF7C6FFA5840020266270BD90F89C126F
:10228000042903D190F89D1280F89C120020704719
:1022900010B590F89C12032904D1D0F8B812C9697E
:1022A00001B18847002010BD01740020704710B5AF
:1022B000D0F8C402FEF7F6FEBDE81040FFF704BEFA
:1022C00070B5044600F2AA20054600F04BF8B4F8B9
:1022D000B032012194F8AA0210F01F02C4E9A5133C
:1022E0000AD0012A0ED0022A12D000F08001204626
:1022F000BDE8704000F012B829462046BDE87040A5
:1023000000F0C0B829462046BDE8704000F0EBB9A7
:1023100029462046BDE8704000F03FB910B5D0F81E
:10232000C402FEF722FBBDE81040FFF7CDBD10B59B
:10233000D0F8C402FEF7D1FEBDE81040FFF7C4BDDF
:1023400090F89C22042180F89D2280F89C120020A5
:10235000704710B5D0F8C402FEF741FBBDE810404D
:10236000FFF7B2BD70B5054608788C1C2870487818
:1023700068702046FFF7F1FAA41C68802046FFF73A
:10238000ECFAA880A01CFFF7E8FAE88070BD38B529
:1023900004460020ADF8000041B1C4F8B812684608
:1023A000896A8847C4F8CC02002038BD032038BDB4
:1023B000D0F8B83202460320002B02D01B6810462A
:1023C000184770472DE9F0412C4E044688780025C7
:1023D0000F46C1B20129317006D939462046FFF7B0
:1023E00094FC0320BDE8F08194F89C0202280CD0F4
:1023F00003281DD039462046FFF787FC3178204658
:10240000FFF76BFC03252846ECE799B32046616093
:10241000FFF7CEFF050004D039462046FFF775FCD4
:10242000F1E72046FFF7A3FC032084F89C02EAE7CB
:102430004FF00208C1B1606888421BD0C1B220468B
:10244000FFF74BFC317820466160FFF7B1FF0500D4
:1024500010D039462046FFF758FC21792046FFF777
:102460003CFC84F89C82CEE76160204684F89C8224
:10247000FFF733FC2046FFF77AFCC4E78400002016
:10248000FFF755BF2DE9F0410A784FF0000512F033
:10249000600208D0202A01D0402A71D1D0F8B82299
:1024A0009268904731E04B78002201260A2B67D2D0
:1024B000DFE803F0415E6658660805662D29FFF7E0
:1024C00061FC5FE004468888D8B9C888C8B94888E4
:1024D000802816D294F89C2200F07F07032A10D09F
:1024E0003946204684F89E72FFF7E1FE2046FFF74A
:1024F0003EFC1FB1022084F89C0243E084F89C62F9
:1025000040E020463CE0FFF75DFF05463AE0CB881F
:10251000012B35D190F89C32012B04D0022B02D034
:10252000032B2DD104E000F108018260012216E0A6
:102530000122011D13E090F89C22012A03D0022AF7
:1025400001D0032A1CD1CA88022A19D1D0F8A412BA
:10255000C66009B10321C160022200F10C01FFF73E
:10256000F9FB0FE0498801290CD1C0F8A46211E001
:1025700090F89C32012B08D0022B06D0032B04D0FC
:10258000FFF7C3FB2846BDE8F08149880129F9D14E
:10259000C0F8A422FFF7EBFBF4E72DE9F041044675
:1025A000087800270D46097910F060000BD020282C
:1025B00001D0402873D1D4F8B80229468268204659
:1025C000904707468CE06878D8B3012822D00328CA
:1025D00065D194F89C02022802D003287CD10BE03C
:1025E000002979D0802977D02046FFF797FE8021F7
:1025F0002046FFF793FE73E0688838B931B180292F
:1026000004D0E88810B92046FFF788FE2046FFF77F
:10261000AEFB65E094F89C020228E1D003285BD170
:102620006888D8BB480602D02046FFF7EFFC20465A
:10263000FFF79DFBD4F8B8022946826820469047F0
:102640004EE0FFE794F89C020026022802D00328FF
:1026500042D111E009B180293ED1080601F07F0086
:1026600000EB800004EB800101D5143101E001F59D
:10267000AA7102220E602BE0080601F00F0000EBA9
:10268000800004EB80000BD5808C40B101F07F000E
:1026900000EB800004EB800514350CE020E01BE02B
:1026A000B0F86401C0B101F07F0000EB800004EBE2
:1026B000800505F5AA7541B1802906D02046FFF7AF
:1026C0008BFD10B10120286000E02E600222294617
:1026D0002046FFF73FFB03E029462046FFF715FBA6
:1026E0003846BDE8F08170B5064608780D464FF0D3
:1026F000000410F0600003D0202801D0402817D13A
:1027000096F89C02012803D0022801D003280FD19B
:10271000287901280CD8D6F8B8028268304690474C
:102720000446E888204306D13046FFF720FB02E04C
:102730003046FFF7EAFA204670BD000070B54D78CC
:1027400001230A78012D1C4C02F00F0503FA05F352
:10275000D0F81C5817D000EB421245EA0343C0F8EA
:102760001C38D2F8000B00040BD40B89C978D2F8BE
:10277000000BC3F30A03184344EA81410843C2F83B
:10278000000B002070BD9EB23543C0F81C5800EB12
:102790004213D3F800090004F3D40D89C978D3F8A3
:1027A0000009C5F30A058904284341EA8251084318
:1027B0002043C3F80009E4E700800010D0F80019B6
:1027C0006FF30A01C0F80019D0F8041841F48071C1
:1027D000C0F804180020704770B504460698049DA0
:1027E0000D99012815D0E06840F04000E0602046D7
:1027F00000F028F8A16B41F48031A163012D07D1CD
:10280000A16841F00601A160A16841F02001A1602A
:1028100070BDA06B01290A4A20F48030A063E068F3
:1028200000EA0200E060E06820F44010E06003D1BC
:10283000E06840F48010E060204600F003F8DDE737
:10284000BFFFBDFF0C49012202E0521C8A420BD897
:102850000369002BF9DA0369012243F001030361E4
:1028600004E0521C8A4201D9032070470369DB0748
:10287000F7D1002070470000400D030070B50A78C2
:1028800001234C78012C00EB42122CD0D2F8004BE3
:10289000002C0BDAD2F8004B44F00064C2F8004B75
:1028A000D2F8004B44F08044C2F8004B0C78D0F8CA
:1028B0003C5804F00F0403FA04F425EA0444C0F879
:1028C0003C480978D0F81C4801F00F018B401C49A6
:1028D00024EA0343C0F81C38D2F8000B0840C2F8C1
:1028E000000B002070BDD2F80049002C0BDAD2F8A2
:1028F000004944F00064C2F80049D2F8004944F0AD
:102900008044C2F800490D78D0F83C4805F00F0526
:102910000C4E03FA05F5ADB2AC43C0F83C48D0F814
:102920001C48097801F00F018B4099B28C43C0F824
:102930001C48D2F800093040C2F80009D1E7000075
:102940000078F3EF007833EC10B5D0F8041821F0DC
:102950000201C0F804180320FDF742FD002010BD5D
:1029600010B5D0F8041841F00201C0F80418032093
:10297000FDF736FD002010BD2DE9F04F0E46044650
:102980000021DDF824B00D46109F0846DDF82C200C
:1029900004EB800CCCF80411401C0F28F8D320461F
:1029A000B7B1806B40F4001CC4F838C088460846B4
:1029B000C4F8000E2046D4F80018012AC4F8001804
:1029C00039D0032A37D0D0F8001841F0030117E0BE
:1029D000D0F8040840F0020CC4F804C8A06B20F43E
:1029E000001CC4F838C0206840F0400CC4F800C097
:1029F000206840F0800CC4F800C0D7E741F0010126
:102A0000C0F80018102100F097FA00B10125204607
:102A100000F082FA00B1012540464FF000694FF600
:102A20007F334FF0904AC4F81088C4F81488C4F873
:102A30001C88002119E0D0F80018002BE0D0DDE759
:102A400004EB4112D2F800C9BCF1000F06DA11B153
:102A5000C2F800A904E0C4F8009901E0C2F8000936
:102A6000C2F81009C2F80839491C8E42E8D8002182
:102A700015E000BF04EB4112D2F800CBBCF1000F0F
:102A800006DA11B1C2F800AB04E0C4F8009B01E023
:102A9000C2F8000BC2F8100BC2F8083B491C8E426A
:102AA000E8D8D4F81038BBF1000F6FF0804223F45F
:102AB0008073C4F81038A061626103D1A06940F04E
:102AC0001000A061A069094A0C9940EA0200A061C7
:102AD00019B1A06940F00800A061012F03D1A069DD
:102AE00003490843A0612846BDE8F08F00383C80C8
:102AF00004000040816821F00101816000207047DE
:102B000070B50B784E78444C0D78012E00EB4313D2
:102B100020D0D3F8100B6FF31200C3F8100BD3F8CA
:102B2000100B2040C3F8100B486908B18868486151
:102B3000D3F8100B012A40F40020C3F8100BD3F88F
:102B4000100B8A68C2F3120240EA0200C3F8100BAD
:102B500056D059E04E69002ED3F8106933D06FF388
:102B60001206C3F81069D3F810692640C3F810693B
:102B70004E698C68A64200D94C61D3F8104944F4E0
:102B80000024C3F81049D3F810494E69C6F3120661
:102B900054EA0604C3F81049012A22D000EB45127A
:102BA000D2F8003943F00443C2F800394A6932B31D
:102BB0000B78D0F83418012203F00F039A40114328
:102BC000C0F8341826E02640C3F81069D3F810493D
:102BD00044F40024C3F81049D3F810496FF31204E9
:102BE000D8E7096919B100EB4512C2F8141900EBD6
:102BF0004510D0F8001941F00441C0F8001909E06F
:102C0000C86808B1C3F8140BD3F8000B40F00440B7
:102C1000C3F8000B002070BDFFFF07E010B5144C97
:102C2000036CA34203D9D0F8003B002B1EDB00232A
:102C3000C0F8103B0129D0F8101B41F40021C0F866
:102C4000101BD0F8101B41F01801C0F8101BD0F871
:102C5000101B41F0C041C0F8101B07D1C0F8142B65
:102C6000D0F8001B41F08021C0F8001B002010BDEF
:102C70000A30544F0B784A78012A00EB43100BD0EE
:102C8000D0F8002B22F40012C0F8002BC9780329D9
:102C900014D0022912D017E0D0F8002922F4001233
:102CA000C0F80029C978032901D002290CD1D0F835
:102CB000001941F08051C0F8001905E0D0F8001B60
:102CC00041F08051C0F8001B002070470A784B7813
:102CD000D1B2012B00EB421012D0D0F8002B002A09
:102CE00006DB29B1D0F8001B21F08041C0F8001BA1
:102CF000D0F8001B41F40011C0F8001B0020704701
:102D0000D0F80029002A06DB29B1D0F8001921F0FB
:102D10008041C0F80019D0F8001941F40011C0F842
:102D20000019EBE7F8B50B786FF060464F78764DF9
:102D3000DCB2012F00EB431326D0D3F8104B6FF316
:102D40001204C3F8104BD3F8104B2C40C3F8104BAF
:102D50004C698D68002C74D0D3F8107B2C44641E11
:102D6000B4FBF5F4A4B206EAC4452F43C3F8107BC4
:102D7000D3F8105B8E686643C6F312042543C3F88C
:102D8000105B012A72D0A6E04F6927B3D3F81079FF
:102D90006FF31207C3F81079D3F810792F40C3F8F6
:102DA00010794F698D68D3F810C92F447F1EB7FB87
:102DB000F5F506EAC54545EA0C05C3F81059D3F800
:102DC00010594E69C6F312063543C3F81059CD7831
:102DD000012D10D01BE0D3F810692E40C3F8106904
:102DE000D3F8105945F40025C3F81059D3F81059F9
:102DF0006FF3120509E0D3F8105925F0C045C3F868
:102E00001059D3F8105945F00055C3F81059012A4C
:102E100018D000EB4413D3F8004944F00444C3F83D
:102E20000049CC78012C2FD04A6962B30B78D0F8D6
:102E30003418012203F00F039A401143C0F83418EC
:102E40005FE036E00A691AB100EB4413C3F81429B5
:102E5000C97801290FD1D0F80818C90500EB441131
:102E6000D1F8002903D442F0005202E02FE042F0F2
:102E70008052C1F8002900EB4410D0F8001941F04D
:102E80000441C0F800193CE0D0F80848E405D3F844
:102E9000004902D444F0005401E044F08054C3F8E7
:102EA000004900928B8A0A78C9689BB200F03EF90B
:102EB00027E0D3F8104BC5F312052C43C3F8104B91
:102EC000D3F8104B44F40024C3F8104B59E7CA68F8
:102ED0000AB1C3F8142BC97801290CD1D0F808081D
:102EE000C005D3F8000B02D440F0005001E040F0E0
:102EF0008050C3F8000BD3F8000B40F00440C3F837
:102F0000000B0020F8BD0000FFFF07E0816841F0E2
:102F10000101816000207047064A102101610021F3
:102F2000491C914201D9032070470369DB06F7D49D
:102F300000207047400D03002023074A43EA811315
:102F400003610021491C914201D9032070470369A4
:102F50009B06F7D400207047400D0300D0F8080806
:102F600010F0060004D0022803D0062801D00F205C
:102F7000704702207047406900F001007047D0F8A8
:102F80001818D0F81C08084080B27047D0F81818FC
:102F9000D0F81C080840000C704710B5D0F8102875
:102FA00001F00F0300EB4114D0F83418D4F80809ED
:102FB000D94001F0010142EAC111084010BD00EB07
:102FC0004111D1F8081BD0F8140808407047416936
:102FD000806908407047D21C00F580509308002299
:102FE00010B502E00468521C10C19A42FAD3084698
:102FF00010BD10B5C268012922F0C042C26002D0E3
:1030000029B1012010BDC16841F0005102E0C16842
:1030100041F08041C1603220FDF7E2F9002010BD8F
:10302000D0F800284FF4FE6303EA011322F4FE6295
:10303000C0F80028D0F800181943C0F80018002084
:1030400070470000022A3ED1264A274B0A449A4282
:1030500001D20F2138E0254A254B0A449A4201D279
:103060000E2131E0234A244B0A449A4201D20D2119
:103070002AE0224A224B0A449A4201D20C2123E040
:10308000204B214A0B44934201D20B211CE01F4BE1
:103090001F4A0B44934201D20A2115E01D4B1E4AE0
:1030A0000B4493420FD31D4B1D4A0B44934201D254
:1030B000082109E01B4B1C4A1944914201D2072107
:1030C00002E0062100E00921C2684FF4705322F4A7
:1030D0007052C26003EA8123C1681943C1600020B5
:1030E00070470000405327FF00350C00401E1BFFB7
:1030F00040420F0000DC0BFF804F1200808CF9FE75
:1031000020D6130060B6E5FE60E3160000D3CEFEC5
:1031100040771B00C05BB3FEC091210000CA91FE46
:1031200020753800E05459FEE09C410010B5029C27
:1031300064B900EB0230DB1C00229B0800F58050D4
:1031400002E010C90460521C9A42FAD3002010BD5C
:10315000FEE7090700284FEA116104DB00F1E020D7
:1031600080F80014704700F00F0000F1E02080F8B4
:10317000141D704702E008C8121F08C1002AFAD1C6
:1031800070477047002001E001C1121F002AFBD1E7
:103190007047000010B5002821D0114B0022001FFD
:1031A000196803E0814203D80A4649680029F9D129
:1031B00052B11368841A9C4204D10068184410600C
:1031C000104602E0506000E0186039B102680B1A46
:1031D000934203D10B681A4402604968416010BDF4
:1031E00098010020FDF708FAFEF7BEFBFEF7A4FAEF
:1031F000FEF7C8FAFEE70000F0B50B30154D20F0E1
:1032000007010024144A0FE003688B420BD38B4262
:1032100005D95E1A43184768C3E9006700E04368B0
:10322000136002C004E0021D10680028ECD12046A3
:10323000002802D1286808B10020F0BD064A0748DE
:103240001060074A121A22F00702C0E90024012088
:103250002860D7E79C010020980100207C1A0020FC
:10326000781C0020000000000000000001020304A0
:10327000060708099432000800000020A0010000A1
:103280003C03000868330008A0010020D81E00009D
:103290008431000813011F1B0831041A3D041A650C
:1032A000041A910413E11E1B080D081ACD04100B1B
:1032B000040309041201010202021640830440576C
:1032C00026020102030114050F0C1C01071017212F
:1032D000031A1A03139D031B0899041A95041AC1B3
:1032E000041AD904193F1182105324F4130A062931
:1032F0004B2A401C1C090243671125C032090419DE
:103300007B1201130524161001052401180901047C
:103310002402020524067C15058203081510090401
:103320000133020A1D07050102432C070581070925
:1033300038442A40072A8107112B0907440A3B0415
:103340004413351B1408971A1408291C42081AE163
:103350000C1A0D041A6D04C11A1D281A11041A2919
:08336000041A050481000000BD
:04000005080001F9F5
:00000001FF
