:020000040800F2
:10000000F00500209D010008CB12000845110008F2
:10001000C9120008CD020008271C000800000000DB
:10002000000000000000000000000000B3180008FD
:10003000CF0200080000000099170008B51800085A
:10004000B7010008B7010008B7010008B7010008B0
:10005000B7010008B7010008B7010008B7010008A0
:10006000B7010008B7010008B7010008B701000890
:10007000B7010008B7010008B7010008B701000880
:10008000B7010008B7010008B7010008B701000870
:10009000B7010008B7010008B7010008B701000860
:1000A000B7010008B7010008B7010008B701000850
:1000B000B7010008B7010008B7010008B701000840
:1000C000B7010008B7010008B7010008B701000830
:1000D000B7010008B7010008B7010008B701000820
:1000E000D1020008B7010008B7010008B7010008F5
:1000F000B7010008B7010008B7010008B701000800
:10010000B7010008B7010008B7010008B7010008EF
:10011000B7010008B7010008B7010008B7010008DF
:10012000B7010008B7010008B7010008B7010008CF
:10013000B7010008B7010008B7010008B7010008BF
:10014000B7010008B7010008B7010008B7010008AF
:10015000B7010008B7010008B7010008B70100089F
:10016000B7010008B7010008B7010008B70100088F
:10017000B7010008B7010008B7010008000000003F
:10018000B7010008B7010008DFF80CD000F08CF8C8
:1001900000480047691C0008F00500200648804719
:1001A00006480047FEE7FEE7FEE7FEE7FEE7FEE75C
:1001B000FEE7FEE7FEE7FEE73919000889010008BF
:1001C0002DE9F05F0546002092469B46884606468C
:1001D000814640241BE0284641464746224600F01F
:1001E00053F853465A46C01A914110D31146184647
:1001F000224600F03AF82D1A67EB01084F462246D6
:100200000120002100F031F817EB00094E41201EBB
:10021000A4F10104DFDC484631462A464346BDE8E6
:10022000F09F40EA01039B0703D009E008C9121FB1
:1002300008C0042AFAD203E011F8013B00F8013BA0
:10024000521EF9D27047D2B201E000F8012B491ECC
:10025000FBD270470022F6E710B513460A46044663
:100260001946FFF7F0FF204610BD202A04DB203A94
:1002700000FA02F1002070479140C2F1200320FAF9
:1002800003F3194390407047202A04DB203A21FAF7
:1002900002F00021704721FA02F3D040C2F120029F
:1002A0009140084319467047064C074D06E0E06848
:1002B00040F0010394E8070098471034AC42F6D3AD
:1002C000FFF766FFE81D0008081E0008FEE77047FC
:1002D00010B5074801F0F5F9064940F2B630096853
:1002E0008863BDE810404FF4805000F01BB8000058
:1002F00058010020040100207047000070B504463A
:1003000000F0FEF80546601C02D004480078044462
:1003100000F0F6F8401BA042FAD370BD00000020A8
:1003200070470000044910B50A68024202D0086014
:10033000FFF7F6FF10BD0000143C01402DE9F84F17
:1003400000224FF0010803254FF00F0E0B6808FA4A
:1003500002F42340A3426ED14E68012E05D0022E36
:1003600003D0112E01D0122E12D186684FEA420C12
:1003700005FA0CF7BE43CF6807FA0CF737438760DE
:100380004668A6430C79C4F3001494403443446097
:10039000C668570005FA07FC8C6826EA0C06BC40C4
:1003A0003443C4604C68022C01D0122C13D1D40801
:1003B00000EB8404A346D4F8209054074FEAD46A93
:1003C0000EFA0AF629EA06090E6906FA0AF646EA5C
:1003D0000906CBF8206006680C7926EA0C0604F0C2
:1003E0000304BC40344304604C68E40065D5364CDB
:1003F000266846F480462660246822F0030604F44A
:1004000080440094314C3444A446D4F808489607FC
:10041000370F0EFA07F6B4432D4EB04201D1002635
:1004200024E02C4EB04201D101261FE02A4EB042FA
:1004300002D102261AE040E0284EB04201D1032644
:1004400014E0274EB04201D104260FE0254EB04201
:1004500001D105260AE0244EB04201D1062605E06E
:10046000224EB04201D1072600E00826BE402643B6
:10047000CCF808681E4E34684F689C43FF0300D5D3
:100480001C4334601A4C241D26684F689E43BF03EA
:1004900000D51E432660164E083634684F689C43CC
:1004A000FF0200D51C433460114E0C3634684F688F
:1004B0009C43BF0200D51C433460521C102AFFF439
:1004C00045AFBDE8F88F00004438024000300140DD
:1004D000000002400004024000080240000C0240FC
:1004E000001002400014024000180240001C0240AC
:1004F000003C01400AB1816170470904FBE700003C
:1005000001488068704700000000002002488168B0
:100510000278114481607047000000200B4810B53C
:10052000016841F400710160016841F4806101607B
:10053000016841F480710160032000F06FF8002031
:1005400000F006F800F024F8002010BD003C024046
:1005500070B50D4D04464FF47A712878B1FBF0F078
:100560000A490968B1FBF0F000F05BFC48B9102CB7
:1005700007D200222146501E00F030F800206C60A7
:1005800070BD012070BD0000000000200C000020A4
:100590000A4808B5016841F480410160006800F430
:1005A000804000900548001F016841F080510160C3
:1005B000006800F08050009008BD00004438024000
:1005C000002809DB00F01F02012191404009800052
:1005D00000F1E020C0F8001170470000F0B40E4BAD
:1005E0001B680C46C3F30223C3F10705042D00D991
:1005F0000425191D072901D2002300E0DB1E012676
:1006000006FA05F1491E214099409E40761E16408B
:100610003143F0BC01F008BB0CED00E0064900F0EE
:10062000070208684FF6FF03184040EA0220034A19
:1006300010430860704700000CED00E00000FA0570
:100640002DE9F0470E46050065D0DFF81481D8F893
:100650000000F7B200F00F00B04207D288F8007037
:10066000D8F8000000F00F00B04254D128683D4C8B
:10067000810712D5400703D5206840F4E050206080
:100680002878000703D5206840F460402060206887
:10069000A96820F0F000084320602878C0072DD01A
:1006A000304968680839012812D0022813D003287D
:1006B00011D00968890700292DDA216821F003018A
:1006C00001432160FFF71CFF814641F2883A0EE0AA
:1006D00009688903EFE709688901ECE7FFF710FF74
:1006E000A0EB0901514502D90320BDE8F08720683D
:1006F000696800F00C00B0EB810FEFD1D8F8001062
:10070000404601F00F01B14207D90770006800F0C0
:100710000F00B04201D00120E7E72878400705D557
:100720002068E96820F4E05008432060287800073A
:1007300006D52068296920F4604040EAC1002060A5
:1007400000F018F82168084AC1F30311515CC84051
:100750000649086006480068FFF7FAFE0020C4E773
:10076000003C024008380240D81D00080C00002060
:1007700004000020154810B5006810F00C02144861
:1007800013D04110042A0FD0082A0ED10F4C241F79
:100790002268236802F03F025B0207D52068C0F39D
:1007A0008810A0FB010106E0084610BD2168C1F3D6
:1007B0008811A1FB00010023FFF702FD2168C1F3AE
:1007C0000141491C4900B0FBF1F010BD083802405E
:1007D0000024F4002DE9F84F04006ED02078DFF8F3
:1007E0003C93C007A9F104054AD009F1040001684F
:1007F000C1F38101012908D00068C0F381000228FB
:100800000AD1D9F80000400206D52868800337D500
:1008100060680028E1D033E06068B0F5803F10D018
:10082000B0F5A02F286810D020F480302860286808
:1008300020F4802028606068A8B1FFF761FE0646BA
:100840000DE0286840F48030F4E740F48020286010
:10085000F7E700BFFFF754FE801B642873D82868B1
:100860008003F7D50CE0FFF74BFE064605E000BF1E
:10087000FFF746FE801B6428F0D828688003F7D471
:100880002078DFF89C8280074FF0000A3ED5A3480D
:10089000001D016811F00C0F08D00068C0F3810042
:1008A00002280BD1D9F80000400207D4286880073D
:1008B00016D5E068012800D112E02BE1E068B8B15C
:1008C0000120C8F80000FFF71BFE064605E000BF48
:1008D000FFF716FE801B0228C0D828688007F7D5CE
:1008E0002868216920F0F80040EAC10028600DE086
:1008F000C8F800A0FFF704FE064604E0FFF700FE7C
:10090000801B02281FD828688007F7D420780007AA
:1009100022D5824E83486169703671B10121016030
:10092000FFF7EEFD074604E0FFF7EAFDC01B0228D3
:1009300009D830688007F7D50EE0C0F800A0FFF7AF
:10094000DFFD074605E082E0FFF7DAFDC01B022865
:100950007DD830688007F7D42078400768D5DFF865
:10096000BCB100270BF13C0BDBF80000C0000BD43E
:10097000DBF8001041F08051CBF80010DBF80000EC
:10098000012700F080500090674E3068C00510D4F9
:10099000306840F480703060FFF7B2FD009005E0F1
:1009A000FFF7AEFD0099401A022850D83068C00504
:1009B000F6D55A4EA0686C3601280FD0052830684D
:1009C00010D020F001003060306820F0040030606A
:1009D000A068B8B1FFF794FD00900FE0306840F0D8
:1009E0000100F4E740F004003060F7E7FFF788FD0E
:1009F0000099411A41F28830814266D830688007F8
:100A0000F4D50EE0FFF77CFD009007E0FFF778FDDE
:100A10000099411A41F28830814256D830688007E7
:100A2000F4D42FB1DBF8001021F08051CBF8001086
:100A3000A069C8B33949091D0968C1F381010229B8
:100A40004AD00228504607D0C8F8600000E03CE0D9
:100A5000FFF756FD04463BE04746C8F86000FFF745
:100A60004FFD064605E000BFFFF74AFD801B022848
:100A70002BD828688001F7D4D4E907010843A16A7C
:100A80002A4A490802EB0141626A41EA821108439D
:100A900094F82C1040EA0161C9F800100120386672
:100AA000FFF72EFD044606E036E000BFFFF728FD05
:100AB000001B022809D828688001F7D52CE000BF68
:100AC000FFF71EFD001B022802D90320BDE8F88FA6
:100AD00028688001F4D41FE00128F7D0D9F800007D
:100AE000E26900F48001914214D1226A00F03F01D2
:100AF00091420FD147F6C071626A0140914209D11B
:100B0000A26A00F44031914204D1E16A00F07060C1
:100B1000884201D00120D9E70020D7E704380240FD
:100B200000004742800E4742007000400000FFFF77
:100B300070B5040005D00025A56294F8510010B1ED
:100B400006E0012070BD84F85050204600F030F8D7
:100B5000022084F851002068016821F04001016002
:100B6000D4E901010843D4E9031211430843616940
:100B70000843218B01F400710843E1690843216AAD
:100B80000843A16A084321680860A069042101EABA
:100B90001040616A0843216848602068C16921F4F7
:100BA0000061C1616565012084F85100002070BDBD
:100BB000F0B587B0044614216846FFF74BFB1C498B
:100BC0002068884232D11B480024016841F48051DA
:100BD0000160006800F480500590164814380168E0
:100BE00041F001010160016801F001010591016816
:100BF00041F0020101600068022500F0020005904A
:100C0000C020CDE9000502AA0326052782E8D0000E
:100C100069460948FFF792FB0820CDE9000502AAC2
:100C2000694682E8D0000548FFF788FB07B0F0BDB1
:100C300000300140443802400000024000040240FD
:100C40002DE9F84F044690F8500000270A9E1D46F3
:100C500092468B464FF0010901280ED0012084F8FE
:100C60005000FFF74DFC804694F851006168012860
:100C70000CD0B1F5827F07D102E00220BDE8F88FE9
:100C8000A16809B9042801D00227C2E0BBF1000F16
:100C900027D0BAF1000F24D01DB394F851000428D6
:100CA00002D0052084F8510000206065C4F838A007
:100CB000E587A587C4F830B0E586A5862064606422
:100CC00020680168490603D4016841F040010160D1
:100CD000E068B0F5006F606805D0E8B3012D46D03C
:100CE0007FE0012795E008B1012D39D1206B216803
:100CF0000088C860206B801C2063E08E401EE08668
:100D00002EE02068816889070FD5E18E69B1B9F1BD
:100D1000010F0AD1216B0988C160206B801C206300
:100D2000E08E401EE0864FF0000920688168C90708
:100D30000CD0E18F51B1C068A16B0880A06B801C02
:100D4000A063E08F401EE0874FF00109FFF7D8FB5A
:100D5000A0EB0800B04200E009E001D3701C50D1C4
:100D6000E08E0028CDD1E08F0028CAD13FE0206B73
:100D7000216800780873206B401C2063E08E401EC1
:100D8000E0862EE02068816889070FD5E18E69B181
:100D9000B9F1010F0AD1216B09780173206B401C56
:100DA0002063E08E401EE0864FF0000920688168D5
:100DB000C9070CD0E18F51B1C068A16B0870A06B5E
:100DC000401CA063E08F401EE0874FF00109FFF751
:100DD00097FBA0EB0800B04202D3701C01D010E0DA
:100DE0007EB1E08E0028CDD1E08F0028CAD14246E6
:100DF0003146204600F0D2FC28B101272020606552
:100E000007E0032705E0A06818B92068C16880687A
:100E10000090012084F85100002084F850003846EA
:100E20002CE710B5401EB0F1807F01D3012010BD2A
:100E30004FF0E02460610F21601700F0F5FE002004
:100E4000A06107202061002010BD10B5040003D070
:100E500094F83D0010B107E0012010BD002084F897
:100E60003C00204600F00CF8022084F83D00211DD3
:100E7000206800F06FFD012084F83D00002010BDC7
:100E800008B500680649884208D10648016841F063
:100E900040010160006800F04000009008BD0000C3
:100EA0000018004040380240022180F83D100168DF
:100EB0008A6802F00702062A03D00A6842F001029B
:100EC0000A60012180F83D100020704770B504468B
:100ED00090F83C00012817D0012584F83C500220EE
:100EE00084F83D002068826822F0770222F47F4275
:100EF00082600868502830D00DDC20284DD005DCF9
:100F000098B310283BD148E0022070BD302844D06F
:100F1000402834D139E0602828D0702806D0B0F5B8
:100F2000805F2CD0B0F5005F29D10AE0CB68D1E911
:100F30000121206800F07FFD2068816841F0770181
:100F400009E0CB68D1E90121206800F074FD206838
:100F5000816841F48041816011E0CA684968206875
:100F600000F03EFE5021206807E016E0CA6849689C
:100F7000206800F046FE6021206800F066FD84F8DD
:100F80003D50002084F83C0070BDCA684968206864
:100F900000F026FE40212068EFE722680146104657
:100FA000EBE7000010B586B0044614216846FFF751
:100FB00051F90E492068884216D10D480021026877
:100FC00042F002020260006800F0020005904FF457
:100FD000004000900220CDE901010920CDE9031075
:100FE00069460448FFF7AAF906B010BD0018004092
:100FF000303802400004024070B5044690F83C00CE
:101000000D4601280DD0012684F83C60022084F8AA
:101010003D0042B1042A18D0082A2AD00C2A4DD10A
:1010200039E0022070BD206800F018FD2068816959
:1010300041F0080181612068816921F0040181612A
:10104000206881692A69114311E0206800F036FDAB
:101050002068816941F4006181612068816921F41F
:1010600080618161206881692A6941EA0221816188
:1010700024E0206800F058FD2068C16941F00801B3
:10108000C1612068C16921F00401C1612068C169A2
:101090002A69114311E0206800F07AFD2068C169D7
:1010A00041F40061C1612068C16921F48061C161BE
:1010B0002068C1692A6941EA0221C16184F83D6062
:1010C000002084F83C0070BD10B5040003D094F8F3
:1010D0003D0010B107E0012010BD002084F83C0065
:1010E000204600F00CF8022084F83D00211D206805
:1010F00000F030FC012084F83D00002010BD704756
:1011000010B504460068012200F088FC0B492068F5
:10111000884202D00A49884203D1416C41F400411F
:1011200041642068816801F00701062903D0016845
:1011300041F001010160002010BD000000000140ED
:1011400000040140FEE7000070B586B01421684637
:10115000FFF780F826480025016841F08001016012
:10116000016801F080010591016841F00101016011
:10117000016801F001010591016841F0020101607F
:10118000016801F002010591016841F0040101606C
:101190000068184E00F00400059000224FF488719A
:1011A0003046FFF7A7F901241020CDE90004694675
:1011B0003046CDE90245FFF7C1F820028DE8310045
:1011C000694630460395FFF7B9F8200300900A48B6
:1011D000CDE9010469460948FFF7B0F8002211463D
:1011E0002820FFF7FBF92820FFF7EAF906B070BDC9
:1011F0003038024000000240000021100008024088
:101200000F4810B50D4901604FF482714160002113
:101210008160C1604FF400720161C0E90512C161D3
:101220000162416281620A21C162FFF781FC0028EC
:1012300003D0BDE81040FFF75FB810BD003001409B
:10124000AC00002010B58CB00024079408940994D9
:101250001C2168460A94FEF7FDFF1A4818490160F0
:101260005321C0E9011440F2E731C0E9031484615D
:10127000FFF7EBFD08B1FFF73FF84FF48050079000
:1012800007A91048FFF722FE08B1FFF735F80D480F
:10129000FFF71AFF08B1FFF72FF86020CDE900042F
:1012A00002940422694607480494FFF7A5FE08B19A
:1012B000FFF722F80348FFF775FE0CB010BD0000E1
:1012C0000018004004010020FEE7704770B50026BA
:1012D00005460C4680F896601C225830FEF7A1FFA8
:1012E000B5F882100022A86FFFF704F9A278212137
:1012F000284600F056FD62782221284600F051FD74
:10130000E2792521284600F04CFD627A207A2621D8
:101310000243A07A0243284600F043FDB5F882104C
:101320000122A86FFFF7E6F8E2782321284600F0B3
:1013300038FDE07E022804D173225021284600F0B7
:1013400030FDE27E607E3D210243284600F029FD0B
:10135000A27E3C21284600F024FD2078012801D0FF
:1013600020B106E0284600F031F902E0284600F0FE
:1013700075F995F89620E121284600F012FD95F8C0
:101380009620E221284600F00CFDC5F89060C5F8D3
:101390008C6085F89460202085F89600284600F03F
:1013A00002F8002070BD70B504460246002100F02E
:1013B000B6FC621C0121204600F0B1FCA21C0221F7
:1013C000204600F0ACFCE21C0321204600F0A7FC04
:1013D000221D0421204600F0A2FC621D05212046AA
:1013E00000F09DFCA21D0621204600F098FCE21DA5
:1013F0000721204600F093FC04F108020821204652
:1014000000F08DFC04F109020921204600F087FC60
:10141000002505F10A0004EBC502C1B294F85C3066
:101420002046103200F056FC05F111006219C1B2DD
:101430002046483200F073FC6D1C062DE9DB94F861
:101440005C3004F140021021204600F043FC04F11E
:101450004E021721204600F062FC04F14F021C21CD
:10146000204600F05CFC04F150022046BDE87040CC
:101470001D2100F054BC000000B5274887B0254965
:10148000C0F88810254981678A15A0F8822040F8A5
:10149000741F1021818122498160891401821C21DD
:1014A0006846FEF7D7FE30208DF805000F208DF836
:1014B000060032208DF8070008208DF8080006206D
:1014C0008DF8090001208DF800003F218DF80110F2
:1014D0008DF8021003218DF8031005218DF80410FA
:1014E000104903910B390491491D059107218DF88D
:1014F000181002218DF81B1004218DF819108DF899
:101500000A008DF81A0069460348FFF7DFFE07B0AE
:1015100000BD0000AC000020580100200000024087
:10152000000802401B0000202DE9F843044690F813
:10153000960017468846202802D00220BDE8F8838E
:1015400000208DF80000FEF7DBFF0546222084F81E
:101550009600B4F882100122A06FFEF7CBFF202680
:101560006A460721204600F0DAFBFEF7C9FF401B60
:10157000B84209D9B4F8821054F8780F0022FEF767
:10158000B9FFA6770320D9E79DF800004006E7D50C
:10159000B4F882100022A06FFEF7ACFF9DF8002087
:1015A0002721204600F0FDFB9DF80000C0F342001B
:1015B000062806D2E16E42460B5C6121204600F00F
:1015C00089FB84F896600020B8E7000070B50546F6
:1015D000B0F88210806F0022FEF78CFF012085F8A2
:1015E000580006465FF0000495F85900304226D0B6
:1015F000E86E022E025D04F11100C0B240F020013D
:1016000028460CD900F0CDFB686E04EB840142182B
:1016100004F10A00C0B240F0200101230CE000F008
:10162000C0FB686E04EB8401421804F10A0095F8CF
:101630005C30C0B240F02001284600F08DFB7006FF
:10164000060E641C062CCFDB95F85800202140F0D4
:101650007E022846BDE8704000F0A3BB10B50446EA
:10166000B0F88210806F00225834FEF743FF00204C
:1016700004F8060B242114F8012914F85D0902432B
:10168000204600F08EFB94F85C3030212046A26E9C
:1016900000F062FBE06E31210278204600F081FB11
:1016A00094F85C302A212046A26E00F055FB94F895
:1016B0005800202140F07E022046BDE8104000F096
:1016C00070BB38B5044600208DF80000B4F88210D5
:1016D0000022A06FFEF70EFF6A460721204600F0A9
:1016E0001EFB9DF800202721204600F05AFB9DF8A4
:1016F0000000C0F3420594F87300022814D1D4F816
:10170000900010B994F8940070B194F89620E121FB
:10171000204600F046FB94F8943045F0A80120469E
:10172000D4F8902000F018FB9DF80000410616D573
:10173000800603D52946204600F020F8062D07D262
:10174000E06E6121D4F88C20435D204600F0C2FA9F
:101750002946204600F004F8202084F8960038BD81
:10176000054850F82120521C40F82120A0F120010A
:10177000C87F401CC87770477C000020054850F89F
:101780002120521C40F82120A0F13801C87F401CC4
:10179000C8777047940000207047000038B50446B1
:1017A0001248134B0068B0FBF3F04FF47A735843C0
:1017B00000906068B0F5827F0DD10B460092002248
:1017C0008021204600F02BF870B1606D40F02000C1
:1017D0006065032038BD009830B1401E009020683D
:1017E0008068C0430006F6D5002038BD0C000020FC
:1017F00000366E013EB500248DF80810FF210091DF
:101800008DF80440D0F88800012301AA02A9FFF74F
:1018100017FA08B18DF804409DF804003EBD2DE98B
:10182000F0411D4617460E460446DDF8188008E0D4
:10183000681C06D0FEF764FEA0EB0800A8420BD29D
:1018400055B12068806836EA000030D00020B842E8
:10185000EED10020BDE8F0812068416821F0E00170
:1018600041606068B0F5827F0BD1A068B0F5004F91
:1018700002D0B0F5806F04D12068016821F04001EA
:101880000160A06AB0F5005F09D12068016821F409
:10189000005101602068016841F40051016001209D
:1018A00084F85100002084F850000320D2E7012082
:1018B000CDE77047FEF72ABE30B593B030216846B9
:1018C000FEF7C8FC14210CA8FEF7C4FC184800253C
:1018D000016841F080510160006800F08050119073
:1018E0001448016841F4804101600068022400F45A
:1018F00080401190012003901020049000940694E1
:101900000820CDE907504820CDE9090404200B90B8
:101910006846FEF75FFF0CA90F2081E83100E00266
:101920000F90109002210CA8FEF78AFE13B030BD74
:1019300040380240007000400548016841F47001E1
:10194000016003494FF00060803908607047000073
:1019500088ED00E0F0B50268254C264D264E274F55
:10196000274B4FF0804CA04209D0604507D0A842D9
:1019700005D0B04203D0B84201D0984204D122F041
:10198000700E4A6842EA0E02A0421BD0604519D090
:10199000A84217D0B04215D0B84213D0984211D007
:1019A000184DA8420ED0184DA8420BD0174DA84292
:1019B00008D0174DA84205D0164DA84202D0164DAA
:1019C000A84203D122F44075CA682A434D6922F027
:1019D00080022A4302608A68C2620A688262A04268
:1019E00001D0984201D10969016301214161F0BD33
:1019F000000001400004004000080040000C0040CE
:101A00000004014000400140004401400048014002
:101A100000180040001C00400020004010B501F0FC
:101A20001F030121046A99408C430462016A9A40B1
:101A30001143016210BD10B5846842EA032224F408
:101A40007F440A432243826010BD826822F0700204
:101A50000A4342F00701816070470000F0B5026A56
:101A600022F001020262036A42688469124E24F085
:101A700073050C682C4323F002058B682B430D4D36
:101A8000A84201D0B04205D123F00807CB683B4300
:101A900023F00403A84201D0B04205D14D6922F4DD
:101AA000407215438A692A434260846149684163F0
:101AB0000362F0BD0000014000040140F0B5026A7D
:101AC00022F010020262026A436884690D6824F4FD
:101AD000E64444EA05248D6822F0200242EA051219
:101AE0000F4D104EA84201D0B04206D1CF6822F06F
:101AF000800242EA071222F04002A84201D0B0421E
:101B000007D14D6923F4406343EA85038D6943EAB5
:101B1000850343608461496881630262F0BD00000F
:101B20000000014000040140F0B5026A22F4807216
:101B30000262026A4368C46922F4007224F07305E9
:101B40000C68124E2C438D6842EA05220E4DA842C5
:101B500001D0B04206D1CF6822F4006242EA0722E7
:101B600022F48062A84201D0B04207D14D6923F42B
:101B7000405343EA05138D6943EA05134360C4618A
:101B80004968C1630262F0BD0000014000040140E9
:101B900030B5026A22F480520262046A4268C36964
:101BA0000D6823F4E64343EA05238D6824F40054CA
:101BB00044EA0534084DA84202D0084DA84204D199
:101BC0004D6922F4804242EA85124260C36149684D
:101BD0000164046230BD00000000014000040140C7
:101BE00010B5036A046A24F001040462846924F0D5
:101BF000F00444EA021423F00A020A4384610262F8
:101C000010BD10B5036A23F0100303628369046AF0
:101C100023F4704343EA023224F0A00343EA0111A3
:101C20008261016210BDFEE70907090E002804DB8E
:101C300000F1E02080F80014704700F00F0000F180
:101C4000E02080F8141D704702E008C8121F08C188
:101C5000002AFAD170477047002001E001C1121F2D
:101C6000002AFBD170470000FEF758FCFFF724FE66
:101C7000FFF76AFAFFF7C4FAFFF7E4FAFFF7FCFB95
:101C80001148FFF711F904210F48FFF739FA0E4CFC
:101C90004FF47A75206885630D480C494FF6FF763E
:101CA00040F8901F202101710948FFF77CFB07498C
:101CB000324620390648FFF737FC0120FEF71EFBAD
:101CC00020688563F0E70000040100205C0000202C
:101CD000580100202DE9F0410C4690460546B0F829
:101CE00080101E46406F0022FEF704FC2146284665
:101CF000FFF780FD0746002406E0FF212846FFF796
:101D000079FD08F80400641CB442F6DBB5F88010D5
:101D10000122686FFEF7EEFB3846BDE8F08170B532
:101D20000E4615460446B0F88010406F0022FEF7BC
:101D3000E1FB31462046FFF75DFD0646FF212046C8
:101D4000FFF758FD2870B4F880100122606FFEF78D
:101D5000D1FB304670BD00002DE9F0410C469046A5
:101D60000546B0F880101E46406F0022FEF7C2FB09
:101D700021462846FFF73EFD0746002406E000BF47
:101D800018F804102846FFF735FD641CB442F7DB51
:101D9000B5F880100122686FFEF7ACFB3846BDE84D
:101DA000F08170B50D4616460446B0F88010406FBD
:101DB0000022FEF79FFB29462046FFF71BFD054644
:101DC00031462046FFF716FDB4F880100122606FFF
:101DD000FEF790FB284670BD0000000000000000E8
:101DE0000102030406070809081E0008000000207D
:101DF0003C000000481C0008441E00083C00002075
:101E0000B4050000581C000801000000100000008C
:101E1000000000000024F400123456789A070707E7
:101E2000070707123456789A1AC2C2C2C21B0000B2
:101E300000001C000000001D000000001E0000004B
:041E4000000000009E
:040000050800018965
:00000001FF
